:020000040800F2
:10000000383D0020210200082B420008033A000876
:1000100029420008490E0008FD54000800000000B5
:10002000000000000000000000000000890100083E
:10003000F510000800000000CD0100089D4C0008EC
:100040003B0200083B0200083B0200083B0200089C
:100050003B0200083B0200083B0200083B0200088C
:100060003B0200083B0200083B0200083B0200087C
:100070003B0200083B0200083B0200083B0200086C
:100080003B0200083B0200083B0200083B0200085C
:100090003B0200083B0200083B0200083B0200084C
:1000A0003B0200083B0200083B0200083B0200083C
:1000B0003B0200083B020008314D00083B020008EB
:1000C0003B0200083B0200083B0200083B0200081C
:1000D0003B020008015200080D52000819520008A6
:1000E0003B0200083B0200083B02000800F002F857
:1000F00000F03AF80AA090E8000C82448344AAF188
:100100000107DA4501D100F02FF8AFF2090EBAE885
:100110000F0013F0010F18BFFB1A43F0010318473B
:10012000547E0000747E0000103A24BF78C878C165
:10013000FAD8520724BF30C830C144BF04680C60ED
:10014000704700000023002400250026103A28BF35
:1001500078C1FBD8520728BF30C148BF0B60704739
:100160001FB51FBD10B510BD00F045F91146FFF7D2
:10017000F7FF05F05BFA00F063F903B4FFF7F2FF55
:1001800003BC00F06BF90000224B19680868B0E866
:10019000F00F80F30988BFF36F8F4FF0000080F3FA
:1001A00011884EF00D0E70470000000006480068F0
:1001B000006880F3088862B661B6BFF34F8FBFF363
:1001C0006F8F00DF00BF00BF08ED00E0EFF3098094
:1001D000BFF36F8F0F4B1A6820E9F00F106008B55E
:1001E0004FF0500080F31188BFF34F8FBFF36F8F34
:1001F00006F024FA4FF0000080F31188BDE80840B3
:1002000019680868B0E8F00F80F30988BFF36F8FB2
:10021000704700BF38000020EFF3058070470000F2
:100220000948804709480047FEE7FEE7FEE7FEE78A
:10023000FEE7FEE7FEE7FEE7FEE7FEE704480549C6
:10024000054A064B704700002F4D0008ED000008DE
:1002500038350020383D002038390020383900205A
:10026000032A40F2308010F0030C00F0158011F8E2
:10027000013BBCF1020F624498BF11F801CB00F8BA
:10028000013B38BF11F8013BA2F1040298BF00F80E
:1002900001CB38BF00F8013B11F0030300F0578099
:1002A000083AC0F0088051F8043B083A51F804CBF2
:1002B000A0E80810F5E7121D5CBF51F8043B40F8B8
:1002C000043BAFF30080D20724BF11F8013B11F8C3
:1002D00001CB48BF11F8012B24BF00F8013B00F807
:1002E00001CB48BF00F8012B704702F0FF0343EA3F
:1002F000032242EA024200F05EB84FF0000200B56D
:10030000134694469646203922BFA0E80C50A0E838
:100310000C50B1F12001BFF4F7AF090728BFA0E8E6
:100320000C5048BF0CC05DF804EB890028BF40F8B2
:10033000042B08BF704748BF20F8022B11F0804FF4
:1003400018BF00F8012B704770477047704710B511
:10035000203AC0F00B80B1E81850203AA0E81850BD
:10036000B1E81850A0E81850BFF4F5AF5FEA027C7E
:1003700024BFB1E81850A0E8185044BF18C918C0ED
:10038000BDE810405FEA827C24BF51F8043B40F88E
:10039000043B08BF7047D20728BF31F8023B48BF73
:1003A00011F8012B28BF20F8023B48BF00F8012BB1
:1003B00070474FF000020429C0F0128010F0030CC7
:1003C0003FF49DAFCCF1040CBCF1020F18BF00F854
:1003D000012BA8BF20F8022BA1EB0C01FFF78FBF68
:1003E0005FEAC17C24BF00F8012B00F8012B48BF55
:1003F00000F8012B7047754600F02CF8AE4605005A
:100400006946534620F00700854618B020B5FFF72F
:1004100015FFBDE820404FF000064FF000074FF0F9
:1004200000084FF0000B21F00701AC46ACE8C00912
:10043000ACE8C009ACE8C009ACE8C0098D4670471B
:1004400010B50446AFF300802046BDE81040FFF72A
:1004500094BE000000487047D434002001491820A1
:10046000ABBEFEE7260002007047000070B50446F0
:1004700000688168C943C90717D1816821F001016B
:10048000816001F007FD05460AE000BF01F002FDB2
:10049000401B022804D920688068C043C00706D0EA
:1004A00020688068C043C007F0D0002070BDA06AFB
:1004B00040F01000A062E06A40F00100E06201201C
:1004C00070BD0000F8B500260446009600688168FB
:1004D000C943C9072DD0816841F0010181601648E8
:1004E00016490068B0FBF1F000E0401E00900028C3
:1004F000FBD101F0CFFC054616E000BF01F0CAFCBD
:10050000401B022810D920688068C043C0070BD068
:10051000A06A40F01000A062E06A40F00100E062D2
:1005200084F824600120F8BD20688068C043C007BB
:10053000E4D10020F8BD00003400002040420F004C
:1005400003490020087003490870012000F030BA08
:10055000F40000201831002008B50025114C124E7F
:1005600015E000BF9DF800100A2908D00D2906D01B
:100570002078172809D23154401C207007E02078D9
:1005800028B13554084800F093FA25703570694653
:10059000012000F01DFA0028E4D1142005F061F8D4
:1005A000F5E70000F40000201831002010B500F03D
:1005B00039F900F04AFC00F0B7FE04F031FB0649BF
:1005C0000020486005480068002803D0BDE81040BE
:1005D00005F01CB910BD0000B80000201C00002070
:1005E0001CB51D4C05F04AF80646142103E0684688
:1005F00000F002FE0021684600F048FC0028F6D119
:10060000207A10B9304600F0A9FD207F70B16069F2
:10061000142802D91438606108E000256561257747
:10062000012000F0E5FE84F828506562304600F0B5
:1006300017FF207A18B9207B08B1012100E00021C2
:10064000304600F05BFD207B18B1E08900F08AFEA7
:10065000C8E700F0EFFEC5E7183000202DE9F041B3
:100660000024134D134F21462C70202607F1440C13
:10067000002001EB0112D31962441E541454401C93
:10068000C0B21028F9D9491C1C74C9B214740429C9
:10069000EED33C2003F06CFE012610B12E70BDE8B5
:1006A000F0813D2003F064FE0028F7D12C70F6E7BE
:1006B000D4000020803000201CB50F4D0F4CC82303
:1006C00000226946286805F00FF880B99DF80000FF
:1006D00060709DF80100A0709DF8020000F001011B
:1006E000E170C0F340012171C0F3C000607103F0FC
:1006F00067FF03F035FFE2E720000020D400002070
:100700007CB5124D00242C806C8000F007FC6860E2
:1007100004F0C0F900F008FC05210120CDE900013A
:1007200004230C221E210A4804F0B8F805210848C9
:1007300004F0DEF8AC6004F0A1F90649C8700C7151
:10074000CC800C704C708C707CBD0000C800002008
:10075000503000201830002010B5064804F0C0F8D2
:100760000549002088600548417BBDE810400148EC
:1007700004F0C5B850300020C80000201830002018
:100780001CB50026244D254C42F21077B04600BF20
:1007900000F0D6FB00F0C2FB6968884215D000F07B
:1007A000BDFB686001A9684600F0A6FB40B19DF85A
:1007B000000020709DF8040060700120A07004E02B
:1007C00084F80280606B401C6063761C192E07D38E
:1007D000002604F053F9E07004F0E4F904F0A4F901
:1007E000A8681430A860B84212D3C5F80880207AEF
:1007F00070B994F8290058B1A07848B1627A21788C
:10080000074804F003F881B204220E2000F050FBE8
:10081000142004F026FFBBE7C80000201830002099
:100820005030002010480021012201704170817079
:10083000C1700171C18002721C2242728172017307
:100840004173C18101744174872242824161816197
:1008500001770162416280F8281080F82910C16296
:10086000016341637047000018300020052800D95B
:100870000520024931F8100070470000E0720008BE
:1008800010B504F049F8002000F092F804F02CFEB6
:100890000348012181600021C1600161416110BDF7
:1008A000DC00002002488168491C8160704700001C
:1008B000DC00002008B5154C41F2883604E000BF8A
:1008C0009DF8000004F010FD6946002000F080F85B
:1008D0000028F5D104F0D2FE0546A068E168884200
:1008E00008D02069281A962804D3A068C4E9030513
:1008F00004F0BCFD6069281AB04202D3656104F0BF
:100900006BFD142004F0ADFEDEE70000DC000020EB
:10091000024900200870022000F04AB8F5000020CB
:1009200008B503E09DF8000004F040FE694602208F
:1009300000F04EF80028F5D1142004F092FEF5E7FF
:100940000648016841F0807101600548002141605E
:10095000016841F00101016070470000FCED00E01A
:10096000001000E000280BD00649074A0968B1FBD7
:10097000F2F1064A4143506853681B1A8B42FBD37D
:10098000704700003400002040420F00001000E0DB
:10099000044805490068B0FBF1F004494968B1FB1F
:1009A000F0F070473400002040420F00001000E0DB
:1009B00003280AD200EB400101EB8011034800EB51
:1009C0008100B0F80411A0F806117047B031002082
:1009D00030B503280DD261B100EB400202EB801369
:1009E0000D4A02EB8300B0F80641B0F80451AC4266
:1009F00001D1002030BDB0F806412244042404EBAC
:100A00008303D25C0A70B0F80611491CC9B2A0F881
:100A10000611012030BD0000B031002070B5124D2C
:100A20001048002428601148C5F80C0110482646DB
:100A3000C5F8180204EB440000EB841005EB8001BC
:100A4000A1F80461A1F8066181F8086155F8200059
:100A5000012201F5847102F033FF641CE4B2032C1F
:100A6000E8D370BD6C020020B0310020B402002039
:100A70002402002030B5032817D200EB400202EB1D
:100A800080140A4A02EB8400B0F80431B0F8065131
:100A90005B1CDBB29D4208D0B0F804512A44042507
:100AA00005EB84041155A0F8043130BDB0310020AD
:100AB00038B5044600208DF8000000E0641C207862
:100AC0002028FBD00928F9D010F0FF0F18D070A112
:100AD000204600F09BF930B102220021012000F0F5
:100AE000E7F96CA00AE06DA1204600F08FF940B153
:100AF00002220021104600F0DBF969A000F064F941
:100B000038BD69A1204600F081F930B102220021F0
:100B1000062000F0CDF966A0F0E768A1204600F0BD
:100B200075F930B102220121062000F0C1F965A05B
:100B3000E4E767A1204600F069F930B10222002104
:100B4000072000F0B5F964A0D8E766A1204600F0C0
:100B50005DF930B102220021042000F0A9F962A061
:100B6000CCE763A1204600F051F930B10222002108
:100B7000052000F09DF95FA0C0E760A1204600F0CD
:100B800045F930B1022201210B2000F091F95DA05E
:100B9000B4E75FA1204600F039F930B1022200210C
:100BA0000B2000F085F95CA0A8E75EA1204600F0CC
:100BB0002DF930B1022200210C2000F079F95AA061
:100BC0009CE75BA1204600F021F930B10222002110
:100BD0000A2000F06DF958A090E75AA1204600F0D5
:100BE00015F930B1022200210F2000F061F957A061
:100BF00084E720784C2801D06C2804D161785629EC
:100C000006D0762904D0542812D0742810D02DE0B4
:100C10006946A01C00F0BEF89DF8001031B181B209
:100C200002220D2000F044F94BA067E74CA065E7D5
:100C30006178482906D0682904D0542812D0742835
:100C400010D013E06946A01C00F0A4F89DF8001035
:100C500031B181B20222082000F02AF942A04DE70A
:100C600043A04BE7492903D0692901D042A045E7B9
:100C70006946201D00F08EF89DF8001031B181B258
:100C80000222092000F014F93CA037E73EA035E726
:100C90004F4E000041434B3A4F4E00004F46460036
:100CA00041434B3A4F4646004155544F0000000027
:100CB00041434B3A4155544F000000004D414E55C1
:100CC000414C000041434B3A4D414E55414C0000D0
:100CD0004D4F44450000000041434B3A4D4F4445C1
:100CE000000000004C2B000041434B3A4C2B00000D
:100CF0004C2D000041434B3A4C2D00005357494EB8
:100D00004700000041434B3A5357494E470000000B
:100D10004E4F5357494E470041434B3A4E4F53575E
:100D2000494E47005357000041434B3A5357000088
:100D30005443414E43454C0041434B3A5443414E8A
:100D400043454C00535441545553000041434B3AE2
:100D5000535441545553000041434B3A4C56000004
:100D60004552523A4C56000041434B3A5448000019
:100D70004552523A544800004552520041434B3AC2
:100D800054494D45000000004552523A54494D45E2
:100D900000000000F0B5024600200446094D6FF047
:100DA0002F0608E0A84204D200EB800006EB4000CA
:100DB00018440124521C1378A3F13007092FF1D9EC
:100DC0000C70F0BD40420F0000B587B0002818D06D
:100DD000037800216A463BB1435C5354491CC9B2B5
:100DE000435C0BB11829F7D30D205054491CC8B2ED
:100DF0000A211154401CC2B264236946024802F021
:100E0000AFFD07B000BD0000B402002010B50FE038
:100E1000A3F16104192C01D8203BDBB2A2F16104DB
:100E2000192C01D8203AD2B2934209D1401C491C56
:100E300003781BB10A78002AEAD101E0087808B1EA
:100E4000002010BD012010BDFEE700F001B8000039
:100E500010B501221102034801F017F802490020E1
:100E6000087010BD000C01400A01002010B50022DE
:100E70004FF48071034801F008F80349012008701D
:100E800010BD0000000C01400A01002010B548B15F
:100E9000064A146834B10B4601460022204604F08D
:100EA00023FC08B1002010BD012010BD1C00002053
:100EB0001CB50F4C2368A3B198B18DF800008DF8D4
:100EC0000120ADF8021004F0D9FB002301901A466E
:100ED0006946206804F066FC064920B1086B401C96
:100EE000086300201CBDC86A401CC86201201CBDEC
:100EF0001C00002018300020074A93784BB108B13D
:100F00001378037009B150780870002090700120A8
:100F10007047002070470000FC00002001488068F6
:100F200070470000FC00002004480021017041705F
:100F30008170C1704160816000F0B0B8FC00002099
:100F4000AFF300802DE9F04F524C87B0606830B1AC
:100F500000F0A0FF6168401AB0F5FA6F7DD302205F
:100F60000127CDE902074FF0000B0320CDE904B0C3
:100F7000494E5D4602A9304600F092FE0022022151
:100F8000304600F082FF122000F0ECFD0122022129
:100F9000304600F07AFF00F081F81E20FFF7E2FCF7
:100FA000A046E5709621002000F088F8002858D06F
:100FB0009621012000F082F8F0B39621002000F085
:100FC0007DF8C8B372B64FF001090026BA46002476
:100FD000554627466408C821012000F06FF868B321
:100FE000FFF7D6FC0290C821002000F067F828B374
:100FF000FFF7CEFC0299401A2D2801D944F0800455
:101000007F1CFFB2082FE5D30DF806409DB3761C78
:10101000F6B2052EDBD362B600F03CFFC8F8040040
:10102000D8F808004146401CC8F80800B9F1000F84
:1010300013D09DF8002002E013E00EE01CE09DF8C4
:1010400001009DF8034013189DF802000444234456
:101050009DF80440DBB29C4214D0002007B0BDE8EC
:10106000F08F00F017FFC8F80400D8F80800401C03
:10107000C8F80800F1E702E05C465D46C4E74FF0BF
:101080000009C8E74A70087081F803A088F802A038
:101090000120E3E7FC000020000801401FB500200C
:1010A00001900390022000900120029069460248BE
:1010B00000F0F6FD1FBD0000000801402DE9F041E1
:1010C0000E460546FFF764FC0446094F08E000BFE2
:1010D000FFF75EFC001BB04202D90020BDE8F081A2
:1010E0000221384600F0CCFEA842F1D10120F5E7FC
:1010F00000080140704772B6FEE7000070B5154D5C
:101100001548002459B1696A4A1C05D0143147F2C8
:1011100030526962914208D3FFF79AFE17E0C4602B
:101120004470287C0028F7D170BDC1681431C160BB
:10113000427822B1C829F7D3C4604470ECE7B1F516
:10114000E16FF1D3C46001244470FFF78FFE2C746B
:1011500070BD000018300020B800002070B51F4C92
:101160002146E67822792078A378497A03B908469F
:1011700016434FF0000547F2305302D00126256296
:1011800005E0226A00269A4201D214322262227BB2
:101190009AB1266A00229E4200D30122801C81421D
:1011A00001D2002A19D084F8285044F8245F012085
:1011B0006571BDE8704000F01BB9002E0DD0814272
:1011C0000BD2012000F000F944F8245F01202071C7
:1011D0006071BDE87040FFF7BFBA70BD18300020E5
:1011E00004494A68821AC82A01D200207047486020
:1011F00001207047B800002070B5054604F03EFAA3
:101200002B7800210122474C102B0CD2DFE803F091
:101210000B080C101F2A494D5C666F737F324086A5
:10122000FFF7DEFF78B970BDFFF7DAFF30B970BDA8
:10123000FFF7D6FF0028FAD0207B20B1BDE8704030
:10124000012000F0D5B8BDE8704000F0E7B8FFF726
:10125000C7FF0028EBD0607B401CC0B205281CD91A
:1012600005201AE0FFF7BCFF0028E0D0607BA0B1AA
:10127000401E11E0FFF7B4FF0028D8D0A87800F096
:10128000A3F8207A0028D2D1BDE87040FFF764BAF5
:10129000207A0028CBD1A878C0B2BDE8704000F019
:1012A00093B8688828B1012003E0207A0028FAD09A
:1012B000002020722162616284F8281084F82910CD
:1012C000002000F095F8DFE768880A2801D20A209C
:1012D00002E02D2800D92D20607270BD688830B1E1
:1012E0004FF47A714843A06160612277ABE72177C0
:1012F0006161A16170BD688800B10120A07220B950
:101300006174BDE8704003F083BC627470BDA07A64
:10131000012801D0A272F8E7A172F1E7BDE87040A0
:10132000FFF7C0BA1830002070B50B4800240B4DF1
:10133000047022460121284600F0A7FD0022022168
:10134000284600F0A2FD064800688463BDE87040AE
:101350000421034802F026B809010020000C0140D6
:10136000DC01002070B54FF47A71884200D908463C
:101370004FF461624243B2FBF1F4B4F5616F01D303
:1013800040F60F640D4D80B10D48007878B1002211
:101390000121284600F079FD01220221284600F0B3
:1013A00074FD08480068846370BD002200E00122DB
:1013B0000121284600F069FD0022EEE7000C014003
:1013C00009010020DC01002070B50446052800D981
:1013D0000524064D20466C73FFF748FAE8810CB1EE
:1013E000012000E00020287370BD000018300020AC
:1013F00010B504460020FFF7E7FF07490022002C44
:101400000A774A618A6105D08A724A74BDE8104041
:1014100003F0FEBB10BD0000183000200448417BE3
:1014200011B10121017370470120FFF7CDBF00000A
:1014300018300020084910B5096800208863074C5F
:1014400002460121204600F020FD20460022BDE892
:101450001040022100F019BDDC010020000C014009
:101460002DE9F047254D264C0026A87A98B1204654
:101470006B7C80680321022714304FF001094FF084
:101480002D084FF49662072B36D2DFE803F02C2CA0
:10149000080E15210800A6602670BDE8F087A06040
:1014A0009042FAD3A6606974F7E703F0B1FB872096
:1014B00068820420A66014E0A060B0F5967FECD3AB
:1014C000A660207810B185F81190E6E7052008E0C5
:1014D000E12003F0B5FBE120688284F8009006204B
:1014E000A6606874D9E72D2003F0AAFBA5F8128046
:1014F0002670A6606F74D0E76E74CEE718300020B7
:10150000B8000020F8B500250446009590F82400A6
:1015100001280BD0012084F824002046FEF7A6FF06
:101520002046FEF7CFFF060002D050E00220F8BDB3
:10153000A06A20F4885040F00200A062022001F06E
:101540001DF925490968B1FBF0F0400000E0401E9C
:1015500000900028FBD12068816841F0080181607B
:1015600000F098FC074608E000F094FCC01B0A2835
:1015700003D920688068000715D4206880680007B8
:10158000F2D42068816841F00401816000F082FC9F
:10159000074612E000F07EFCC01B0A280DD9206827
:1015A0008068400709D5A06A20F0020040F01000D2
:1015B000A06284F824500120F8BD206880684007AC
:1015C000E8D4A06A20F0020040F00100A06284F894
:1015D00024503046F8BD000034000020F8B5002447
:1015E000009490F824202546012A12D0012280F888
:1015F00024204A681F23072A0DD20668776B521EE3
:1016000002EB820293409F430B6893401F43776332
:1016100019E00220F8BD06680D2A0AD2376BD21FE6
:1016200002EB820293409F430B6893401F43376352
:1016300009E0F76A0D3A02EB820293409F430B6880
:1016400093401F43F7620A68072306680A2A0AD3F1
:10165000F7680A3A02EB420293409F438B6893403B
:101660001F43F76008E0376902EB420293409F4353
:101670008B6893401F4337610A68102A01D0112AF2
:1016800020D1124B02689A4217D193681B0219D4D9
:10169000936843F4000393600968102912D10C4940
:1016A0000C4A0968B1FBF2F101EB8101490000E04D
:1016B000491E00910029FBD104E0816A41F020011C
:1016C0008162012480F824502046F8BD00240140A6
:1016D0003400002040420F000068C06C70470000DA
:1016E0002DE9F0414FF0000704003D467ED0A06A8E
:1016F000002628B9E66284F82460204600F07EF8CF
:101700002046FEF7B3FEA16AC90600D420B1A06A44
:1017100040F01000A06269E0A16A21F4885141F014
:101720000201A1626268E169237B0A4347EA43013F
:101730000A43A1684FF48077B94209D0012907D044
:101740005FF0000194F814C0BCF1010F02D00AE070
:101750003946F7E7F3B1A36A43F02003A362E36AD3
:1017600043F00103E3622368D3F804C02CF4694C0E
:101770004CEA010CC3F804C021688B68DFF870C024
:1017800003EA0C0313438B60A168B9420BD0012913
:1017900009D00CE0DFF85CC0A3690CEB43330B43CA
:1017A00043F40061DFE7218A0D05A5F58015216866
:1017B000CB6A23F470032B43CB62216889680E4BFC
:1017C0001940914208D1E662A16A21F0020141F07C
:1017D0000101A162BDE8F081A06A20F0020040F0A2
:1017E0001000A062E06A40F00100E0620120F1E731
:1017F000FDF7E1FF00E0FFFFFE0E1FFF00B585B023
:101800000021009101910291039100680E498842E4
:1018100018D10E48816941F400718161816901F438
:1018200000710491816941F0040181618069694618
:1018300000F0040004901020009003200190044860
:1018400000F02EFA05B000BD002401400010024057
:10185000000801402DE9F84300270D460446009793
:1018600000F018FB804620688168C90508D5A06A89
:1018700040F02000A06284F824700120BDE8F883C5
:101880004168C90503D4C06A10F4700F2AD0022041
:1018900000F074FF3B490968B1FBF0F6206803696A
:1018A00039490B424FEA61014FEAA1121FD1C368C7
:1018B0004FEA611C13EA0C0F19D103690B4225D1C1
:1018C000C068104222D1142023E0681C0AD02DB138
:1018D00000F0E0FAA0EB0800A84203D920680068F5
:1018E000800725D5206800688007EED52DE00369C4
:1018F0000B4202D1C168114206D0026923490A4253
:1019000006D1C068084203D1542002E0292000E03B
:10191000FC204643009816E0681C11D02DB100F061
:10192000B9FAA0EB0800A8420AD90098B04207D241
:10193000A06A40F00400A06284F8247003209DE7B0
:101940000098401C0090B042E6D321686FF012006E
:101950000860A06A40F40070A06220688068C0F34C
:10196000424007280CD1207B50B9A06A20F4807037
:10197000A062A06AC00403D4A06A40F00100A06283
:1019800000207BE73400002024499224499224005F
:1019900070B5044690F8240001280DD0012084F889
:1019A00024002046FEF78EFD02004FF0000005D017
:1019B00084F82400104670BD022070BDA16A40F278
:1019C0000123994341F48071A1621F4D23681F498F
:1019D000AB4218D10E6816F4702F14D0A66A46F4E4
:1019E0008016A6620E68760505D5A66A26F400560E
:1019F00046F48056A662A66AF6040AD5E66A26F080
:101A00000606E66206E0A66A26F48016A6625E680E
:101A1000E9E7E06284F824006FF0020018602068B3
:101A20008368C3F34243072B05D1A84208D1096854
:101A300011F4702F04D0816841F480118160B9E7FE
:101A4000816841F4A001F9E7002801400424014025
:101A500010B5044690F82400012807D0012084F82E
:101A600024002046FEF702FD10B107E0022010BD61
:101A7000A16A21F4885141F00101A162002184F89A
:101A8000241010BD10B590F821100022022905D0B5
:101A90000421816380F82020012010BD01680B68BB
:101AA00023F00E030B6001680B6823F001030B6049
:101AB00090F84030C46B012101FA03F3636080F8B1
:101AC000211080F82020104610BD000010B590F8BD
:101AD00021100024022903D00421816301243DE068
:101AE00001680A6822F00E020A6001680A6822F0A2
:101AF00001020A601A4A0168914201D1012121E0E4
:101B0000174A1432914201D110211BE0144A2832A5
:101B1000914201D1891515E0114A3C32914201D11F
:101B200089140FE00E4A5032914202D14FF48031B5
:101B300008E00B4A6432914202D14FF4801101E077
:101B40004FF08071064A083A5160012180F8211057
:101B5000002180F82010416B01B18847204610BD5C
:101B60000800024070B5044600F094F90546601C78
:101B700002D004480078044400F08CF9401BA042D5
:101B8000FAD370BD280000202DE9F04300233E4F1A
:101B90000F2573E001229A400A406DD023F0030420
:101BA000E619D6F808809C074FEA147C05FA0CF970
:101BB00009EA0804DFF8D480404502D14FF000085C
:101BC00016E0DFF8CC80404502D14FF001080FE06D
:101BD000DFF8C080404502D14FF0020808E0DFF88E
:101BE000B880404502D14FF0030801E04FF00408EF
:101BF00008FA0CF8A04522D1284CD4F800C02CEAF1
:101C0000020CC4F800C0241DD4F800C02CEA020C59
:101C1000C4F800C0214C0C34D4F800C02CEA020CEB
:101C2000C4F800C0241FD4F800C02CEA020CC4F889
:101C300000C0D6F808C02CEA090CC6F808C0FF2A74
:101C400001D8064601E000F104064FEA830401D9F9
:101C5000A4F12004D6F800C005FA04F82CEA080C18
:101C60004FF0040808FA04F84CEA080CC6F800C063
:101C7000C46824EA0204C46003F1010331FA03F2E8
:101C800088D1BDE8F0830000000001400008014059
:101C9000000C01400010014000140140000401400C
:101CA0002DE9F84FDFF8B8910024A9F1040B234681
:101CB0000F2709F1040AABF1040EC9E00125A54084
:101CC0002A40AA427DD1674ED1F804C0ACEB060889
:101CD000B44532D014DCBCF1030F3AD009DCBCF1BE
:101CE000000F2AD0BCF1010F1CD0BCF1020F31D182
:101CF0001DE0BCF1110F17D0BCF1120F2AD119E071
:101D0000B8F5881F19D006DCB8F5803F15D0B8F5B6
:101D1000801F1FD111E0B8F5001F0ED0B8F5041FC9
:101D200018D10AE0CB6815E0CB681B1D12E0CB6828
:101D300008330FE0CB680C330CE08B682BB1012B20
:101D40004FF0080303D0456104E0042302E005617D
:101D500000E00023FF2A01D8064601E000F1040656
:101D60004FEA840501D9A5F12005D6F8008007FACD
:101D700005FC28EA0C0803FA05F548EA0508C6F848
:101D800000804D68ED0062D5374DAE6946F0010622
:101D9000AE61AD6924F0030605F001050095334DF1
:101DA00006EB050CDCF80850A607360F07FA06F814
:101DB00025EA0805DFF8B880404503D14FF0000858
:101DC00017E044E0DFF8AC80404502D14FF0010855
:101DD0000FE0DFF8A480404502D14FF0020808E090
:101DE000DFF89880404502D14FF0030801E04FF042
:101DF000040808FA06F848EA0508CCF808804D6897
:101E0000D9F80060ED024D4601D5164300E0964337
:101E10002E604D68DAF80060AD02554601D51643D4
:101E200000E096432E604D68DBF80060AD035D4630
:101E300001D5164300E096432E604D68DEF8006041
:101E4000ED03754601D5164300E096432E60641CF1
:101E50000D682A46E5407FF431AFBDE8F88F0000F9
:101E60000804014000001110001002400000014071
:101E700000080140000C0140001001400014014026
:101E80008068084000D0012070470AB101617047A6
:101E90000904FBE701488068704700002800002023
:101EA00010B5040013D0242084F83D002068016898
:101EB00021F001010160204600F04CFB002020646D
:101EC00084F83D0044F8300FA073207310BD01204A
:101ED00010BD000070B5040025D094F83D00002529
:101EE00020B984F83C50204600F050FB242084F8B0
:101EF0003D002068016821F001010160206801684F
:101F000041F4004101602068016821F40041016052
:101F100000F0B2FD4D4A6168914201D84C4900E0A1
:101F20004C49884201D2012070BD4B492368B0FB67
:101F3000F1F15E6826F03F060E435E6063689342EF
:101F400006D94FF4967359434FF47A73B1FBF3F10A
:101F50002368491C1E6A26F03F06314319626168F6
:101F6000914210D84900401EB0FBF1F2521CC2F35E
:101F70000B02042A01D2042022E0B0FBF1F0401C45
:101F8000C0F30B001CE0A268F2B301EBC10303EB4A
:101F90000116431EB3FBF6F35B1C43F480431B05A1
:101FA00049D092B301EBC10202EB0111401EB0FB1C
:101FB000F1F0401CC0F30B0040F4804040F40040BE
:101FC0002168CA694CF6FF739A431043C861D4E98B
:101FD000071001432068026822F0C002114301602B
:101FE000D4E9030101432068826848F2FF339A4331
:101FF00011438160D4E9050108432168CA6822F0D1
:10200000FF021043C86001E00EE016E0206801689E
:1020100041F0010101602564202084F83D00256322
:1020200084F83E50002070BD01EB4106431EB3FB17
:10203000F6F35B1CB3E70120C2E701EB4101401E50
:10204000B0FBF1F0401CC0F30B00B7E7A086010025
:1020500080841E0000093D0040420F002DE9FF4F23
:1020600081B089460446FFF715FF054694F83D0008
:102070004FF0000820287DD1192301225049204625
:10208000009501F0D5FD002874D194F83C0001289A
:1020900070D0012084F83C0020680168C90703D192
:1020A000016841F0010101602068016821F40061CC
:1020B0000160242084F83D00002626644148E06247
:1020C0004FF0011B20272068016841F480710160F6
:1020D0000095002259462046049B01F0A9FD50B10D
:1020E00020680068C00502D54FF40070206403200A
:1020F00005B0BDE8F08F216809F0FE000861FFF728
:10210000C9FE2168054648694969C0F34000C1F32A
:1021100080214FF0A00A0FE0FFF7BCFE411B04989E
:10212000814200D808B984F83DA02168486949690E
:10213000C0F34000C1F3802194F83D20A02A02D0D2
:1021400008B90029E8D084F83D7020684169C94386
:10215000890716D4016841F4007101602068416963
:1021600080691923012216492046009501F060FD7F
:10217000B8B900E021E084F83D7084F83C600020AC
:10218000B6E7016841F40071016021686FF4806076
:102190004861192301220A492046009501F048FDB3
:1021A00008B10120A4E7039808F1010880458AD30B
:1021B00084F83D7084F83C60F3E7022098E7000063
:1021C000020010000000FFFF2DE9FF4F83B0002543
:1021D000DDE910799A4693460446DDF8488000957B
:1021E000FFF758FE064694F83D0020287CD11923BD
:1021F000012288492046009601F01AFD0028F5D1F9
:1022000094F83C0001286FD0012084F83C0020683D
:102210000168C90703D1016841F00101016020682C
:10222000016821F400610160222084F83D00402013
:1022300084F83E0025646762A4F82A90608D2085AA
:102240007548E062CDE9008653465A462046049917
:1022500001F0F0FB00287CD1208DDFF8C091202711
:1022600068B1012814D00228206801681ED041F40A
:10227000806101602068416980690090BCE020684D
:10228000416981690091016841F400710160B3E026
:102290002068016821F48061016072B6206841699C
:1022A00081690091016841F400710AE041F4006124
:1022B000016072B62068416981690091016821F46A
:1022C0008061016062B697E0032865D801280CD0D0
:1022D000022843464FF000024946204600960BD0A4
:1022E00001F0A6FCA8BB0CE091E032464146204636
:1022F00001F044FD68BB72E001F09AFC48BB72B685
:1023000033E02068016821F48061016072B62068C2
:102310000069616A0870606A401C6062208D401E1E
:102320002085608D401E60853D4846F2A8110068FA
:10233000B0FBF1F0C0EBC00000EB80000090401E4D
:10234000009007D020684069C04340070DD5009831
:10235000F5E727E044F8305F6773A573206940F024
:102360002000206162B625731CE02068016841F4FA
:102370000071016020680069616A0870606A401C31
:102380006062218D491E2185618D491E618562B67D
:1023900021680969017026E032464146204601F075
:1023A000EDFC18B1012007B0BDE8F08F206800698E
:1023B000616A0870606A401C6062208D401E81B2B4
:1023C0002185608D401E608520684269D243520796
:1023D00012D4032903D1016821F4806101602068CF
:1023E0000069616A0870606A401C6062208D401E4E
:1023F0002085608D401E6085208D00287FF464AFAD
:1024000084F83D7084F83E5084F83C50CBE70220BD
:10241000C9E70000020010000000FFFF04000100F7
:10242000340000202DE9FF4F83B09A46DDE9119773
:1024300093460446DDF84080FFF72CFD054694F8EE
:102440003D0020287FD119230122404920460095D4
:1024500001F0EEFB002876D194F83C00012872D000
:10246000012084F83C0020680168C90703D1016895
:1024700041F0010101602068016821F40061016000
:10248000212084F83D00402084F83E000026266488
:10249000C4F82480A4F82A90608D20852C48E0623E
:1024A000CDE9007553465A462046049901F040FB99
:1024B00070B930E02A463946204601F097FC58B101
:1024C000206C042804D12068016841F40071016087
:1024D000012007B0BDE8F08F606A216800780861CC
:1024E000606A401C6062218D491E89B22185628D1F
:1024F000521E628522685369DB435B070BD469B1C6
:1025000000781061606A401C6062208D401E20854A
:10251000608D401E6085208D0028CBD12A4639462B
:10252000204601F059FB0028CAD154F83D0B016840
:1025300041F400710160202004F81E09E6776677F7
:102540000020C6E7FFE70220C3E7000002001000FA
:102550000000FFFF10B50068094988420FD1094803
:10256000C16921F40011C161074C40212046FFF7E9
:102570000BFB2046BDE810408021FFF705BB10BDD6
:102580000054004000100240000C014010B586B01D
:102590000021009101910291039100680F49884246
:1025A0001AD10F4CA06940F00800A061A0696946EB
:1025B00000F008000490C020009012200190032039
:1025C00003900848FFF76CFBE06940F40010E061FD
:1025D000E06900F40010049006B010BD0054004003
:1025E00000100240000C014002488168027811444A
:1025F0008160704728000020074810B5016841F04D
:1026000010010160032000F0A7F80F2000F006F889
:1026100000F050F8002010BD0020024030B5054603
:102620001F4887B0C16941F00401C161C06906A9B2
:1026300000F00400009001A800F0FEF90498B0B189
:1026400000F01AFA40001749174AB0FBF1F1174899
:10265000491E0260416040F2E7320021C0E90321D7
:102660008160816100F03EFC040003D015E000F0C1
:1026700003FAE8E70D4800F083FC04000DD11E20AA
:1026800000F03CF8102D07D2002229461E2000F051
:1026900043F80748056000E0012407B0204630BD3C
:1026A0000010024040420F0000080040FC020020E1
:1026B0002C0000200F4808B5816941F001018161BB
:1026C000816901F001010091C16941F08051C1614E
:1026D000C069002200F0805000900F21901E00F091
:1026E0001BF80548416821F0E06141F0007141604C
:1026F00008BD00000010024000000140002809DB76
:1027000000F01F02012191404009800000F1E0200B
:10271000C0F8001170470000F0B40E4B1B680C4667
:10272000C3F30223C3F10705042D00D90425191DA5
:10273000072901D2002300E0DB1E012606FA05F17D
:10274000491E214099409E40761E16403143F0BC00
:1027500002F05CBF0CED00E0064900F007020868DB
:102760004FF6FF03184040EA0220034A1043086076
:10277000704700000CED00E00000FA0510B50146BE
:102780000020234C012922D0022939D010291DD143
:1027900061682268D20119D51E48C1F38342C9037A
:1027A000805C0AD561681B4AC1F34041921E515CAE
:1027B000194AB2FBF1F1484301E018494843616806
:1027C000490203D440000321B0FBF1F010BD226A9E
:1027D000C2F30121012903D1920701D5C80310BD1D
:1027E000022905D1626A920702D549F6404010BD20
:1027F0000329FCD121688903F9D54FF2244010BD8B
:1028000000F04AF96168C1F38131491C4900DBE7F6
:1028100000100240B872000800127A0000093D0062
:102820002DE9F84305460078354CC00754D0E069DF
:102830000026C00008D4E06940F08050E061E06903
:10284000012600F0805000902E480168C90512D47E
:102850000168804641F480710160FFF71BFB074669
:1028600005E000BFFFF716FBC01B642823D8D8F88B
:102870000000C005F6D5206A10F4407021D0A98868
:1028800001F4407181421CD0206A1F49012220F4CA
:1028900040700A6000220A602062C00711D0FFF772
:1028A000F9FA074641F2883808E000BFFFF7F2FA6C
:1028B000C11B414502D90320BDE8F883206A800787
:1028C000F4D5206A696820F44070084320621EB184
:1028D000E06920F08050E0612878800705D56068C5
:1028E000A96820F44040084360602878C00605D5F8
:1028F0006068E96820F48000084360600020DBE73E
:102900000010024000700040400442422DE9F047B0
:102910000F46050061D0434E306800F00700B84212
:1029200009D2306820F0070038433060306800F08A
:102930000700B84251D128683B4C810712D54007A7
:1029400003D5606840F4E06060602878000703D534
:10295000606840F4605060606068A96820F0F00032
:10296000084360602878C00728D06868012810D024
:102970002168022810D0890700292EDA616821F029
:10298000030101436160FFF785FA804641F288390F
:102990000DE021688903EFE78901EDE7FFF77AFA97
:1029A000A0EB0801494502D90320BDE8F087606823
:1029B000696800F00C00B0EB810FEFD1306800F0D7
:1029C0000700B8420BD9306820F007003843306068
:1029D000306800F00700B84201D00120E5E7287810
:1029E000400705D56068E96820F4E060084360604E
:1029F0002878000706D56068296920F4605040EA0D
:102A0000C100606000F058F86168084AC1F3031122
:102A1000515CC8400649086006480068FFF7FEFDA3
:102A20000020C2E70020024000100240C8720008E7
:102A3000340000202C0000200F2202600C4A536852
:102A400003F003034360536803F0F00383605368AB
:102A500003F4E063C36052684FF4E06303EAD20218
:102A600002610448006800F0070008607047000039
:102A700000100240002002400448054900684968EF
:102A8000044AC1F30221515CC84070473400002061
:102A900000100240D87200080448054900684968DF
:102AA000044AC1F3C221515CC84070473400002081
:102AB00000100240D87200080E4A51680E4801F01A
:102AC0000C03042B11D0082B0FD10C48C1F3834306
:102AD000C903C05C0AD55168084AC1F34041921E3F
:102AE000515C054A5043B0FBF1F07047044948433C
:102AF000704700000010024000127A00A672000821
:102B000000093D002DE9F84F040070D02078C04D39
:102B1000C00749D06868C0F38100012807D0686801
:102B2000C0F38100022809D16868C00306D528686F
:102B3000800339D560680028E7D035E06068B0F5DB
:102B4000803F0BD010B1B0F5A02F11D0286820F431
:102B500080302860286820F4802002E0286840F453
:102B600080302860606890B1FFF794F906460AE06B
:102B7000286840F480202860F0E700BFFFF78AF95A
:102B8000801B642873D828688003F7D50CE0FFF712
:102B900081F9064605E000BFFFF77CF9801B642839
:102BA000F0D828688003F7D420789A4E80074FF039
:102BB00001094FF0000839D5686810F00C0F07D0F4
:102BC0006868C0F38100022809D16868C00306D490
:102BD0002868800714D52069012808D110E02069F1
:102BE000B0B1C6F80090FFF755F9074605E00AE1D5
:102BF000FFF750F9C01B0228C4D828688007F7D512
:102C00002868616920F0F80040EAC10028600DE002
:102C1000C6F80080FFF73EF9074604E0FFF73AF9EF
:102C2000C01B022823D828688007F7D42078000723
:102C30002CD57948A169D9B1C0F80090FFF72AF9DD
:102C4000074604E0FFF726F9C01B02280FD8686A80
:102C50008007F7D571484FF4FA510068B0FBF1F0E6
:102C6000009000BF0098411E0091FAD20EE080E073
:102C7000C0F80080FFF70EF9074604E0FFF70AF9F5
:102C8000C01B022875D8686A8007F7D420784007EF
:102C900060D5E8690027C00008D4E86940F080509A
:102CA000E861E869012700F0805000905C48016805
:102CB000C90513D40168834641F480710160FFF7B0
:102CC000E9F8824606E000BFFFF7E4F8A0EB0A004F
:102CD00064284ED8DBF80000C005F5D5E06801286F
:102CE0000AD008B1052813D0286A20F00100286214
:102CF000286A20F0040002E0286A40F001002862FF
:102D0000E06841F2883B98B1FFF7C4F882460BE0D7
:102D1000286A40F004002862EEE700BFFFF7BAF827
:102D2000A0EB0A0159455AD8286A8007F6D50CE06D
:102D3000FFF7B0F8824605E0FFF7ACF8A0EB0A0118
:102D400059454CD8286A8007F6D41FB1E86920F0AD
:102D50008050E861E06988B36968C1F381010229A4
:102D600044D00228C6F8608004D0FFF793F80446E8
:102D700038E034E0FFF78EF8074604E0FFF78AF802
:102D8000C01B02282BD828688001F7D4206AB0F530
:102D9000803F05D16868A16820F40030084368606E
:102DA000D4E908010843696821F474110843686094
:102DB000C6F86090FFF76EF8044606E025E000BF15
:102DC000FFF768F8001B022809D828688001F7D5AA
:102DD0001BE000BFFFF75EF8001B022802D90320AA
:102DE000BDE8F88F28688001F4D40EE00128F7D000
:102DF0006868226A00F48031914204D1616A00F46B
:102E00007010884201D00120EAE70020E8E70000C6
:102E10000010024000004242800442423400002080
:102E2000007000407047704710B590F83C20012AB0
:102E300022D0012280F83C20CA688C6822F44072BB
:102E400022434C6822F4806222430C6822F4006220
:102E500022430C6922F4805222434C6922F400522E
:102E60002243C969002322F480420A4301684A646C
:102E700080F83C30002010BD022010BD70B590F8E5
:102E80003C20012A26D0012480F83C40022280F810
:102E90003D2003685A689D6822F070060A68324334
:102EA0005A600D4B02689A4208D0B2F1804F05D0AB
:102EB0000A4B9A4202D00A4B9A4204D1496825F043
:102EC00080031943916080F83D40002180F83C1058
:102ED000084670BD022070BD002C01400004004077
:102EE0000008004010B5040003D094F83D0010B174
:102EF00007E0012010BD002084F83C00204600F0CF
:102F00001FF8022084F83D00211D206801F016FF03
:102F1000012084F8460084F83E0084F83F0084F8DD
:102F2000400084F8410084F8420084F8430084F8AB
:102F3000440084F8450084F83D00002010BD0000E6
:102F400008B50C4A01680C48914207D1816941F4E7
:102F500000618161806900F4006009E0074A9142E4
:102F600007D1C16941F00201C161C06900F00200EE
:102F7000009008BD002C01400010024000040040F9
:102F800090F83D10012901D001207047022180F8FE
:102F90003D100168CA6842F00102CA6000680B492E
:102FA000884208D0B0F1804F05D00949884202D04C
:102FB0000849884204D1816801F00701062903D03D
:102FC000016841F00101016000207047002C0140C0
:102FD000000400400008004070B5044690F83C0032
:102FE0000025012817D0012684F83C60022084F8CF
:102FF0003D002068826822F0770222F47F428260DE
:103000000868502838D00DDC20284FD005DC90B35C
:10301000102811D14AE0022070BD302846D0402847
:103020000AD13BE060282FD070280DD0B0F5805F2A
:1030300003D0B0F5005F12D0012584F83D60002078
:1030400084F83C00284670BDCB68D1E90121206896
:1030500001F0BDFE2068816841F0770109E0CB688E
:10306000D1E90121206801F0B2FE2068816841F4B5
:1030700080418160E1E719E0CA684968206801F091
:103080005BFF5021206806E0CA684968206801F0AB
:1030900064FF6021206801F0A4FECEE7CA68496899
:1030A000206801F049FF40212068F4E722680146CA
:1030B0001046F0E770472DE9F04104460068C66805
:1030C00005694FF00007A90713D5B10711D5F91EFF
:1030D000016101202077206880698007204602D0A6
:1030E000FFF7E8FF04E000F0C7F8204600F059F9C8
:1030F0002777680716D5700714D521686FF004008C
:103100000861022020772068806910F4407F204603
:1031100002D0FFF7CFFF04E000F0AEF8204600F049
:1031200040F92777280715D5300713D521686FF0A8
:1031300008000861042020772068C06980072046C5
:1031400002D0FFF7B7FF04E000F096F8204600F049
:1031500028F92777E80616D5F00614D521686FF010
:1031600010000861082020772068C06910F4407FB3
:10317000204602D0FFF79EFF04E000F07DF82046D5
:1031800000F00FF92777E80708D0F00706D021688C
:103190006FF001000861204600F052F9280608D5BA
:1031A000300606D521686FF0800008612046FFF7E1
:1031B00039FE680608D5700606D521686FF0400014
:1031C0000861204600F046F9A8060AD5B00608D5E1
:1031D00021686FF0200008612046BDE8F041FFF74C
:1031E00022BEBDE8F081000000B585B0002100914D
:1031F0000191029103911A4B02681A4802219A42E6
:1032000011D1826942F0040282618069039100F069
:1032100004000490C801CDE9000169461248FEF798
:103220003FFD05B000BD114B9A42FAD1826942F0D0
:10323000080282618069039100F008000490202058
:10324000CDE9000169460A48FEF72AFD09484168B0
:1032500021F4406141F0E06141F400614160E0E748
:10326000002C014000100240000801400004004012
:10327000000C014000000140704770B5044690F812
:103280003C0000260D4601280FD0012084F83C00A8
:103290006AB1042A1DD0082A2FD00C2A3FD001265B
:1032A000002084F83C00304670BD022070BD2068CC
:1032B00001F0A0FD2068816941F00801816120686A
:1032C000816921F004018161206881692A691143C3
:1032D00011E0206801F0B6FD2068816941F40061C9
:1032E00081612068816921F4806181612068816940
:1032F0002A6941EA02218161D2E7206801F0CEFD0E
:103300002068C16941F00801C1612068C16921F0EC
:103310000401C1612068C1692A69114311E0206874
:1033200001F0E8FD2068C16941F40061C1612068D5
:10333000C16921F48061C1612068C1692A6941EADB
:103340000221C161ACE710B5040003D094F83D0040
:1033500010B107E0012010BD002084F83C00204699
:1033600000F01EF8022084F83D00211D206801F0C5
:10337000E5FC012084F8460084F83E0084F83F0014
:1033800084F8400084F8410084F8420084F8430047
:1033900084F8440084F8450084F83D00002010BD06
:1033A0007047704710B50446022249B104290ED077
:1033B000082913D094F84100012816D0012010BD2F
:1033C00094F83E000128F9D184F83E200FE094F8EB
:1033D0003F000128F2D184F83F2008E094F8400033
:1033E0000128EBD184F8402001E084F8412001223B
:1033F000206801F0DFFC0F492068884203D1426C4D
:1034000042F4004242642068884208D0B0F1804F04
:1034100005D00949884202D00849884204D1816810
:1034200001F00701062903D0016841F001010160A4
:10343000002010BD002C01400004004000080040A6
:1034400000680349884201D1FFF7CEB870470000F9
:10345000000800407047704782B000281AD000680A
:103460000168416800910C49884203D101220B494F
:103470000B480CE00B49884203D101220A490B4852
:1034800005E00B49884205D10A490B48012202B0E8
:1034900000F016BA02B0704700440040B832002075
:1034A0006C02002000480040C4330020B402002019
:1034B00000380140D034002024020020F8B5016813
:1034C00004460868CA684B6910F00F0F4FF00005FA
:1034D00059D003F0010602F49077374365D0C10755
:1034E00005D0D10503D5616C41F00101616441074C
:1034F00005D5D90703D0616C41F0020161648107F1
:1035000005D5D90703D0616C41F00401616401075E
:1035100007D502F02001314303D0616C41F008016E
:103520006164616C00293AD0800604D5900602D50A
:10353000204601F053FD20684069616CC0F38010A3
:10354000090700D460B3204601F021FD20684069DE
:10355000400621D52068143050E8001F21F04001BA
:1035600040E80012002AF5D1E06BA8B16D49416333
:10357000E06BFEF7ABFA002811D0E06B416B01B0B5
:10358000BDE8F040084783060FD593060DD52046C9
:10359000BDE8F84001F022BD2046FFF75DFFF8BD11
:1035A0002046FFF759FF6564F8BD266B2023012EE6
:1035B0007CD1C6067AD5D60678D5086848680090CA
:1035C00048694FF00206400640D5E16B0868406844
:1035D0000004000CE8D0A28D8242E5D9E08588691C
:1035E00020282DD020680C3050E8001F21F4807175
:1035F00040E80012002AF5D12068143050E8001F7E
:1036000021F0010140E80012002AF5D120681430B1
:1036100050E8001F21F0400140E80012002AF5D1D7
:1036200084F84230256320680C3050E8001F21F0F8
:10363000100140E80012002AF5D1E06BFEF722FAF3
:103640006663A08DE18D401A81B22AE0A08DE18DE4
:10365000401A81B2E08D0028A6D00029A4D02268AB
:103660000C3252E8000F20F4907042E80007002F5F
:10367000F5D12068143050E8002F22F0010240E814
:103680000027002FF5D184F84230256320680C30E4
:1036900050E8002F22F0100240E80023002BF5D163
:1036A00066632046FFF7D7FEF8BDFFE705062BD57A
:1036B000150629D594F841002128F5D1A068B0F568
:1036C000805F01D12069B0B1206A411C216221686C
:1036D00000784860E08C401E0004000CE084E3D1D8
:1036E0002068C16821F08001C1602068C16841F094
:1036F0004001C160D8E7206A0088C0F30800486034
:10370000206A801C2062E5E74006CDD55006CBD567
:10371000CA68204622F04002CA6084F8413000F0B6
:103720006FF9C1E77F4F000870B5040004D094F82A
:103730004100002510B106E0012070BD84F8405022
:10374000204600F023F8242084F841002068C16856
:1037500021F40051C160204601F0A2FC20680169FB
:1037600021F4904101612068416921F02A01416101
:103770002068C16841F40051C1606564202084F86C
:10378000410084F842006563002070BDF0B585B04B
:10379000002400940194029403940368424F022091
:1037A00042490322424D4602BB4225D18B6943F474
:1037B00080438B618B6903F4804304938B6943F0EE
:1037C00004038B618969039201F0040104910102F1
:1037D000CDE9001069462846FEF762FACDE900649B
:1037E000694628460294FEF75BFA0022052125204F
:1037F000FEF792FF252028E02E4FBB4229D1CB694E
:1038000043F40033CB61CB6903F4003304938B6939
:1038100043F004038B618969039201F00401049170
:103820000421CDE9001069462846FEF739FA082040
:10383000CDE90004694628460294FEF731FA0022D9
:1038400005212620FEF768FF2620FEF757FF05B06A
:10385000F0BD194DAB42FAD1CB6943F48023CB6163
:10386000CB6903F4802304938B6943F008038B61D5
:103870008969124D01F00801CDE90321CDE900600D
:1038800069462846FEF70CFAE814CDE900046946BB
:1038900028460294FEF704FA002205212720FEF7AD
:1038A0003BFF2720D1E70000003801400010024014
:1038B000000801400044004000480040000C014066
:1038C00090F84230202B01D00220704721B11AB16C
:1038D0000023036301F040BC0120704710B50028AD
:1038E00028D00068144A1549904208D191F808116F
:1038F0000020FDF7BFF801221149124816E0124AD4
:10390000904208D191F814120120FDF7B3F801227A
:103910000E490F480AE00F4A90420BD191F820134C
:103920000220FDF7A7F80C490C480122BDE8104021
:10393000FFF7C6BF10BD000000440040B0310020BA
:10394000B83200206C02002000480040C433002040
:10395000B402002000380140D034002024020020AE
:103960002DE9F843044690F84100984616460D4666
:10397000202802D00220BDE8F88385B17EB1002066
:103980006064212084F84100FEF784FAA684814611
:10399000E684A0682027B0F5805F02D003E0012014
:1039A000E9E7206910B12E4600250EE000260CE064
:1039B0008021204601F0EBFBA8B9C6B116F8010B37
:1039C00021684860E08C401EE084E08C4B464FF05C
:1039D0000002CDF800800028EAD14FF040012046D7
:1039E00001F0D5FB40B184F841700320C3E735F8FE
:1039F000020BC0F30800E3E784F841700020BAE747
:103A00007047FEE701684A69D24352050FD46FF44C
:103A100080624A61002140F8301F20224273817386
:103A2000026942F004020261017301207047002024
:103A3000704700002DE9F84F0446006889460B9D49
:103A400001689846174641F480610160206801686A
:103A500041F48071016000954FF0011B002259462E
:103A600020460A9B00F0E4F84FF4007A40B1206849
:103A70000068C00501D5C4F840A00320BDE8F88F58
:103A8000216809F0FE0008612B46284920460A9A61
:103A900000F016F9F0BB20684169806900902A4661
:103AA00020460A9900F0A2F940B1206C04283AD1CE
:103AB0002068016841F40071016034E0FEB2B8F1A1
:103AC000010F09D02168380A08612A4620460A9960
:103AD00000F08CF90028E8D1206806612A462046CB
:103AE0000A9900F083F90028DFD12068016841F4C9
:103AF0008071016000950022594620460A9B00F023
:103B000097F80028B3D1216809F0FF0040F00100C8
:103B1000086100E007E02B46044920460A9A00F0BD
:103B2000CFF80028AAD00120A8E700000200010079
:103B30002DE9F843044600680D46DDE90897016861
:103B40009846164641F4807101604B4600224FF0C2
:103B500001112046009700F06BF848B1206800681A
:103B6000C00502D54FF4007020640320BDE8F8833F
:103B7000216805F0FE0008613B464A46154920468B
:103B800000F09EF888B920684169806900903A4643
:103B90004946204600F02AF948B1206C042804D197
:103BA0002068016841F4007101600120DEE7F5B290
:103BB000B8F1010F09D02168300A08613A46494638
:103BC000204600F013F90028E7D1206805610020A5
:103BD000CCE700000200010070B516460D46044611
:103BE0001EE02046FFF70EFF08B1012070BD681CE3
:103BF00016D0FEF74FF9801BA84200D885B920687F
:103C00004069C04340070BD5002044F8300F202105
:103C10006173A073216941F0200121612073E4E701
:103C200020684069C0434007DBD4002070BD00001D
:103C30002DE9F047984617460D460446C1F307465E
:103C4000DDF820902AE000BFB8F1FF3F26D0FEF754
:103C500021F9A0EB0901414502D8B8F1000F1DD1AF
:103C60002068012E16D0806925EA00000004000CAF
:103C700012D00020B84211D1002044F8300F20218A
:103C80006173A073216941F020012161207301203B
:103C9000BDE8F0874069E7E70120EBE72068012EE7
:103CA0000AD0806925EA00000004000C06D000203C
:103CB000B842C9D00020EBE74069F3E70120F7E7FD
:103CC0002DE9F047984616460D4604464FF0000988
:103CD0004FF0200AC1F3074723E020684069C04342
:103CE000400515D42068016841F400710160216825
:103CF0006FF480604861C4F8309084F83DA084F887
:103D00003E90216C41F00401216484F83C9021E054
:103D1000701C06D0FEF7BEF8A0EB0800B04203D836
:103D200016B1012F1FD021E02068012F15D0806926
:103D300025EA00000004000C18D000BF44F8309FB2
:103D400084F80DA084F80E90216941F020012161D2
:103D500084F80C900120BDE8F087406925EA000056
:103D60000004000CEAD12068406901E02068806905
:103D700025EA00000004000CAFD1ECE72DE9F0418A
:103D8000002590460E460446202728E04069C0439F
:103D9000C0060CD454F8301B6FF01000486144F892
:103DA00010596777A577206A2062257714E0FEF71F
:103DB00071F8A0EB0800B04200D886B920684069CD
:103DC000C04340060BD544F8305F6773A573206984
:103DD00040F02000206125730120BDE8F0812068BB
:103DE0004169C9434906D1D40020F6E770B51646AB
:103DF0000D4604461EE02046FFF704FE08B10120F0
:103E000070BD681C16D0FEF745F8801BA84200D88C
:103E100085B920684069C04300060BD5002044F8EE
:103E2000300F20216173A073216941F020012161CD
:103E30002073E4E720684069C0430006DBD400201B
:103E400070BD00003EB50024114800940194029416
:103E50000E498460016004730475012505614FF407
:103E600060214460C161FDF73BFC08B1FDF743F9F7
:103E70000420CDE90005694602940548FDF7AEFB34
:103E8000002801D0FDF737F93EBD000000240140B5
:103E90001001002010B5FCF789FBFCF7BFFD22489C
:103EA00001F0C5FC214C204A08216062303A102004
:103EB00001F04CFC1C4A0821E061183A084601F068
:103EC00045FC20621A4A00211A4801F0E5FC184A14
:103ED000206024320021184801F0DEFC144A6060A2
:103EE00048320021154801F0D7FC114AA0606C321D
:103EF0000021134801F0D0FC0D4AE060903200210F
:103F0000104801F0C9FC084A2061783A00210E48A7
:103F100001F0C2FC044A6061543A00210B4801F0F0
:103F2000BBFCA06110BD00009472000800000020DE
:103F300068710008654C0008894C0008914C000825
:103F4000954C0008614C0008994C00088D4C000805
:103F500030B585B000241F48009401940294039466
:103F6000816941F020018161816901F020010491A2
:103F7000816941F004018161816901F004010491CA
:103F8000816941F0080181618069134D00F00800EA
:103F90000490002203212846FDF777FF0122110239
:103FA0002846FDF772FF2320CDE9000469460B483F
:103FB0000294FDF775FE40F2031000900120CDE958
:103FC00001040220039069462846FDF769FE05B00A
:103FD00030BD000000100240000C0140000801400C
:103FE0000D4810B50B4901600C49416000214FF4A8
:103FF00080428160C0E9031241618161C161016257
:10400000FDF768FF002803D0BDE81040FDF773B846
:1040100010BD00000054004040010020A0860100B7
:1040200010B596B000240F94109411941294139428
:104030001C2108A81494FCF760F920216846FCF7BD
:104040005CF9284826498460046144618461016008
:104050004721416044F61F61C160FEF743FF08B18C
:10406000FDF749F84FF480500F900FA91D48FEF757
:10407000B3FF08B1FDF73FF81A48FFF764F908B13C
:10408000FDF739F8139413A916481494FEF7F6FEB9
:1040900008B1FDF730F86020CDE908040A940B94CC
:1040A0000C940D94002208A90E480E94FFF7E5F831
:1040B00008B1FDF720F800944FF40050CDE904401A
:1040C000029401940394694606480794FEF7ACFEF7
:1040D00008B1FDF710F80348FFF786F816B010BDD9
:1040E000002C01409401002010B58EB000240794EC
:1040F000089409940A940B941C2168460C94FCF7CC
:10410000FCF81E481C49C0E900148460046140F6B4
:104110000F618461C160FEF7E5FE08B1FCF7EBFFBB
:104120004FF48050079007A91448FEF755FF08B1D7
:10413000FCF7E1FF1148FFF706F908B1FCF7DBFFD8
:104140000B940BA90D480C94FEF798FE08B1FCF7F0
:10415000D2FF6020CDE9000402940422694607489A
:104160000494FFF78AF808B1FCF7C5FF0348FFF78E
:104170003BF80EB010BD000000040040DC01002040
:104180000C4810B50A4901604FF4165141600021F6
:1041900081600C22C160C0E904128161C161FFF736
:1041A000C3FA002803D0BDE81040FCF7A4BF10BD3F
:1041B00000380140240200200C4810B50A49016073
:1041C0004FF4E1314160002181600C22C160C0E9FF
:1041D00004128161C161FFF7A7FA002803D0BDE88E
:1041E0001040FCF788BF10BD004400406C02002066
:1041F0000C4810B50A4901604FF416514160002186
:1042000081600C22C160C0E904128161C161FFF7C5
:104210008BFA002803D0BDE81040FCF76CBF10BD3E
:1042200000480040B4020020FEE7FEE70A4810B54F
:10423000407800280FD00020084A01461154401C45
:1042400080B28028FAD30024204600F06FF8641C66
:10425000E4B2082CF8D310BD0B010020303100204F
:104260000C4B5B78002B13D04B1C082B10D27F2AF1
:1042700001D93F2205E0202A01D2202201E07E2A36
:10428000F7D8054B03EB4212A2F5806200F018B894
:10429000704700000B010020EC72000870B514009C
:1042A0000E460CD004E03146FFF7DAFFE8B2641C9A
:1042B0002278002A03D000F10805802DF3D970BDC3
:1042C0002DE9F0414C1C174688460646082C28D29A
:1042D000404600F07FF8144D68B100203118C9B293
:1042E000802901D23A5C6A54401CC0B20828F5D338
:1042F000404600F01BF8E0B200F06CF8002810D047
:1043000000203118C9B2802902D23A18127A6A54B0
:10431000401CC0B20828F4D3E0B2BDE8F04100F080
:1043200005B8BDE8F0810000303100203EB500F056
:1043300087F8002815D00B48802132228DE807002D
:10434000094C0123402221780848FEF76BF830B170
:10435000A078401CA070BDE83E4000F05FB800208F
:10436000A0703EBD303100200B0100204001002034
:104370002DE9F0410D4D410000262970AE7000F08E
:1043800019F880B10A4F0024385D00F071F850B17F
:10439000641CE4B21C2CF7D301206870FFF746FFC1
:1043A0000120BDE8F0816E700020FAE70B010020CB
:1043B000CC7E0008400610B5010E322302220448CC
:1043C000FDF74CFE08B1002010BD012010BD00001B
:1043D000400100203EB500F033F8002812D00C4810
:1043E000322280218DE807000A4C012340222178E7
:1043F0000948FDF7E9FE30B1A078401CA07000F03C
:104400000DF800203EBD0020A07001203EBD000040
:10441000303100200B0100204001002010B5064C77
:10442000A078052807D30548FDF73AFD0348FDF7B6
:1044300051FD0020A07010BD0B01002040010020A4
:1044400010B5082801D3002010BD40F0B00000F0E6
:104450000FF80028F8D0002000F00AF80028F3D068
:10446000102000F005F80028EED0012010BD00005B
:1044700011B583B00121322203A88DE807000A4C50
:104480000B46002221780948FDF7CCFF38B1A0780F
:10449000401CA070FFF7C2FF002004B010BD002038
:1044A000A0700120F9E700000B010020400100206E
:1044B000074A00EB0010002110442022435C03B99E
:1044C0004254491CC9B21029F8D300210174704725
:1044D00080300020FEB5002430276D4681B10A26C9
:1044E000B1FBF6FC06FB1C1CB1FBF6F10CF1300C29
:1044F00005F804C0641CE4B249B10B2CF0D306E00B
:104500008DF80070012402E02F55641CE4B294423F
:1045100001D20B2CF8D300210CE01A78102A0BD210
:10452000661A2E4416F8016C86541A78521C491CDF
:104530001A70C9B2A142F0D31A7800218154FEBD8D
:1045400010B504E0035513785B1C1370491C0B78FD
:1045500013B11478102CF5D312780021815410BDBA
:104560002DE9F0411448007800281DD0134F002495
:1045700007F1440804EB04120020D51902EB0806E9
:10458000295C325C914211D02A4621460020FFF777
:1045900085FE0020295C3154401CC0B21028F9D996
:1045A000641CE4B2042CE5D3BDE8F081401CC0B229
:1045B0001028E5D9F4E70000D40000208030002066
:1045C0002DE9FE43704F0024704E8DF800403C7082
:1045D000707908B16EA100E06EA16A466A48FFF7E3
:1045E000AFFF6B46022271786748FFF773FF6A4698
:1045F00069A16548FFF7A4FF6B460222B1786248C3
:10460000FFF768FF6A4666A15F48FFF799FF654DAF
:104610008DF800405C487C74297A1130804611B1D5
:104620006A4661A107E095F8290008B160A100E0A1
:1046300061A16A464046FFF783FF6A4660A1404693
:10464000FFF77EFF697B6B4601224046FFF742FF82
:10465000F07808B15BA100E05BA16A464046FFF735
:104660006FFF307908B159A100E059A16A46404670
:10467000FFF766FF8DF80040434887F82240297F06
:1046800022300A26804600296CD068694FF47A717E
:10469000B0FBF1F13C22B1FBF2F0B1FBF2F302FB13
:1046A0001311632800D96320B0FBF6F230328DF885
:1046B0000420B0FBF6F206FB120030308DF8050046
:1046C0003A208DF80600B1FBF6F030308DF8070087
:1046D000B1FBF6F006FB101030308DF808008DF8B5
:1046E00009406A463BA14046FFF72AFF6A4601A9F6
:1046F0004046FFF725FF6A4638A14046FFF720FFF6
:10470000697A6B4602224046FFF7E4FE1E488DF8A8
:10471000004087F8334033306A4631A10446FFF742
:104720000FFFA87A01282CD02FA16A462046FFF758
:1047300007FF6A462DA12046FFF702FF698A6B46F4
:1047400003222046FFF7C6FE0020FFF7B1FE01203E
:10475000FFF7AEFE0220FFF7ABFE0320FFF7A8FE37
:10476000BDE8FE836A4622A1FFF7EAFEE8896B46B0
:10477000B0FBF6F103224046FFF7ACFE6A4608A103
:10478000B6E71DA1D1E7000080300020D400002052
:10479000543A0000543F00004320483A0000000013
:1047A00025000000183000204D414E55000000004B
:1047B00050494420000000004155544F00000000C3
:1047C00020463A0020500000202D00005300000039
:1047D0002D000000544D52200000000020544800DD
:1047E0005357494E473A00004F46460020410000CB
:1047F00053504420000000004F4E2000884201DA50
:10480000084670479042FCDD1046704770B50400C2
:104810000ED094F82C0058B1C4E90321881A00EB9B
:1048200080004500A06AA84207DB4042A84204DCA1
:104830002046BDE8704000F027B894F82D0020B95C
:1048400025620120656284F82D00226A2068A91A79
:104850005242636A05EB420248431A44D4E9011309
:1048600001FB05005A4310444FF47A7190FBF1F0BC
:10487000616908446061D4E90621FFF7BFFF606108
:10488000206AC4E90850D3E7002806D040694FF4F5
:104890007A7100F5FA7090FBF1F0704770B500285E
:1048A000DDE904541BD06426714301604FF47A7132
:1048B0004C434D4372437343C0E90645A542C0E9EA
:1048C000012300DDC4610021C1600161C269016290
:1048D00041624261816280F82C1080F82D1070BD19
:1048E000002804D000210162416280F82D10704739
:1048F000002803D0002900DA00218162704710B53A
:104900000B46040007D0D4E906214FF47A705843CF
:10491000FFF774FF606110BD7047000000B58DB0F7
:1049200000216A46002816D002E05354491C89B27F
:10493000435C0BB12D29F8D3FF235354491C88B293
:1049400069461354401C80B21354401C82B2642345
:104950000248FFF705F80DB000BD00006C02002012
:1049600070B5002490B022466B46002849D002E082
:104970001D55641CE4B2055D0DB1142CF8D32E2036
:104980001855641CE0B276241C54401CC0B261244B
:104990001C54401CC0B26C241C54401CC0B23D24AA
:1049A0001C54401CC0B2002904DA2D241C54401CA5
:1049B000C0B249420CAC79B10A250C2A0FD2B1FB26
:1049C000F5F605FB1616B1FBF5F13036A654521C70
:1049D000D2B20029F1D102E03021A154521C0021B1
:1049E00008E0551A254415F8015C1D54401C491C6B
:1049F000C0B2C9B29142F4D3002119541846FFF74E
:104A00008DFF10B070BD10B500238CB0002832D0DF
:104A10006A4600292FD002E0D4545B1CDBB2C45C90
:104A20000CB1142BF8D32E20D0545B1CD8B27423B5
:104A30001354401CC0B278241454401CC0B2135408
:104A4000401CC0B23D231354401CC0B22223135457
:104A5000401CC0B203E01454401CC0B2491C0C7886
:104A60000CB12E28F7D31354401CC0B200211154AE
:104A70001046FFF753FF0CB010BD000010B5012128
:104A80000348FDF7FDF9012800D0002010BD00000B
:104A9000000801407FB5012000240221CDE9000477
:104AA000CDE90201064D69462846FDF7F9F82020B8
:104AB000009069462846FDF7F3F8024804707FBD70
:104AC000000801400801002010B520210348FDF72F
:104AD000D7F9012800D0002010BD000000080140D7
:104AE00070B50F4D0024287828B90E48FCF70AFD50
:104AF00028B9012028700B48FCF74AFF08B10020B4
:104B000070BD14210748FCF7A5FE18B90548FCF74D
:104B1000E3FD84B20348FCF79BFF204670BD000014
:104B200008010020100100201FB51C490020CA7890
:104B300002B101200A790AB140F00200CA880AB124
:104B400040F004008B780BB140F008000B788DF832
:104B500000304B788DF801308DF80200487B8DF8DD
:104B600003000F4CADF804200020ADF806002068CB
:104B7000002812D000231A46694600F013FE0028D0
:104B80000BD000231A4602A9206800F0ADFD0023D7
:104B90001A466946206800F005FE1FBD1830002047
:104BA0002000002010B5FFF78FFF1049104C4FF682
:104BB000FF73002258B10888984201D2401C088037
:104BC00080B24A80022808D30120207109E0488879
:104BD000984201D2401C48800A804888022800D3AD
:104BE0002271FFF77DFFE08010BD0000C8000020AB
:104BF000183000204FF48771884200D908464FF4DE
:104C0000FA625043B0FBF1F000F5FA7080B27047E1
:104C1000024940F2DC500968486370479401002063
:104C2000064910B5096840F2DC504863002103488A
:104C3000FEF7B8FBBDE81040FFF7EABF9401002083
:104C400000B52D2801D22D2002E0E12800D9E12075
:104C5000FFF7D0FF01490968486300BD94010020B7
:104C6000FBF77ABC10B5FBF76BFEFBF749FDFBF7D2
:104C7000F5FCFBF705FEFBF763FCFBF749FEBDE81F
:104C80001040002001F084BCFBF7AABCFBF714BD68
:104C9000FBF776BDFBF70EBEFBF742BE10B54FF03B
:104CA000E020006902F0A2F8012803D0BDE810401E
:104CB00001F04ABD10BD30B593B028216846FBF71E
:104CC0001CFB14210AA8FBF718FB002501200F95F7
:104CD00010951195010412958DE8230004904FF46E
:104CE000E010CDE90810022407946846FDF70AFF9A
:104CF00008B172B6FEE70AA90F2081E831004FF42F
:104D00008060CDE90D0502210AA8FDF7FFFD08B17D
:104D100072B6FEE74FF4004011900F940FA8FDF714
:104D20007FFD002801D072B6FEE713B030BD70479A
:104D30000148FEF7C0B90000FC020020F0B502688F
:104D4000194B1A4C1A4D4FF08047984205D0B84283
:104D500003D0A04201D0A84203D122F070064A68D5
:104D60003243984205D0B84203D0A04201D0A842B5
:104D700003D122F44074CA6822434C6922F08002B5
:104D8000224302608A68C2620A688262984201D144
:104D900009690163012141610169C90703D0016902
:104DA00021F001010161F0BD002C01400004004030
:104DB0000008004010B501F01F030121046A99406A
:104DC0008C430462016A9A401143016210BD10B520
:104DD000846842EA032224F47F440A432243826027
:104DE00010BD826822F070020A4342F00701816020
:104DF0007047000030B5036A026A22F001020262C5
:104E00004268846924F073050C682C4323F0020582
:104E10008B682B430A4DA8420BD123F00805CB68C1
:104E200022F440722B434D6923F0040315438A6931
:104E30002A434260846149684163036230BD0000D7
:104E4000002C014030B5026A036A23F010030362AC
:104E5000436884690D6824F4E64444EA05248D68B7
:104E600022F0200242EA05120B4DA8420ED1CD6875
:104E700022F0800242EA05124D6923F4406343EABE
:104E800085038D6922F0400243EA85034360846113
:104E900049688163026230BD002C014030B5036A6D
:104EA000026A22F4807202624268C46923F40073C9
:104EB00024F073050C682C438D6843EA05230C4DE0
:104EC000A8420ED1CD6823F4006343EA05234D695F
:104ED00022F4405242EA05128D6923F4806342EACB
:104EE00005124260C4614968C163036230BD0000BD
:104EF000002C014030B5046A026A22F4805202623A
:104F00004268C3690D6823F4E64343EA05238D68CC
:104F100024F4005444EA0534064DA84204D14D69F6
:104F200022F4804242EA85124260C361496801640A
:104F3000046230BD002C014010B5036A046A24F0FD
:104F400001040462846924F0F00444EA021423F0AA
:104F50000A020A438461026210BD10B5036A046A42
:104F600024F010040462846923F0A00324F4704444
:104F700044EA023243EA01118261016210BD10B5B8
:104F8000406A0021C185C184FEF766FA10BD016840
:104F90000C3151E8002F22F4907241E80023002BDD
:104FA000F5D10168143151E8002F22F0010241E8E7
:104FB0000023002BF5D1016B012909D101680C31C7
:104FC00051E8002F22F0100241E80023002BF5D118
:104FD000202180F8421000210163704708B590F845
:104FE0004210222901D0022008BD82684FF480536C
:104FF0009A4201D1016921B1816A9A421BD04AB11A
:105000000AE00268816A5268C2F308020A80816A73
:10501000891C08E0026972B10268526802F07F02DE
:105020000A70816A491C8162C18D491E0904090CFC
:10503000C18503D01BE002685268F1E70168CA68C5
:1050400022F02002CA600168CA6822F48072CA6035
:1050500001684A6922F001024A61202180F8421069
:1050600000214163026B012A03D0FEF737FC0020C8
:1050700008BD016301680C3151E8002F22F01002D5
:1050800041E80023002BF5D101680A68D20602D559
:105090000A6849680091818DFEF7DDF9E7E70000B5
:1050A00070B5044600680169E26821F4405111437B
:1050B00001612169A0680843616908432168CA68E1
:1050C00041F20C639A430243CA6020684169A269B5
:1050D00021F44071114341611E492068884202D188
:1050E000FDF7DAFC01E0FDF7C7FC00EBC00101EBC6
:1050F0000012606864218000B2FBF0F3B3FBF1F3AF
:105100006FF018067343B2FBF0F5B2FBF0F605EB57
:105110008305322303EB0515B5FBF1F5B6FBF1F67C
:1051200005F0F00505EB0615B2FBF0F6B2FBF0F06A
:10513000B0FBF1F06FF01802504306EB800003EB78
:105140000010B0FBF1F0216800F00F0028448860E7
:1051500070BD00000038014081628285C285002157
:105160004164222180F84210016921B10168CA68B6
:1051700042F48072CA6001684A6942F001024A61E1
:105180000068C16841F02001C160002070472DE92E
:10519000F843984617460D460446089E24E0701CC6
:1051A00022D0FCF777FEA0EB0800B0421AD8CEB1AF
:1051B0002068C168490717D5802D15D0402D13D020
:1051C0000168C94309070FD40168002540680090B1
:1051D0002046FFF7DCFE0820606484F84050012080
:1051E000BDE8F8830320FBE72068006835EA00008B
:1051F00004D00020B842D2D00020F1E70120F9E726
:105200000148FEF75BB90000240200200148FEF7C8
:1052100055B900006C0200200148FEF74FB90000AC
:10522000B40200200549087920B18878042801D209
:10523000401C887000200871C8707047DC00002096
:105240000AB1096800E00021303817284AD2DFE8A7
:1052500000F00C1014171B1F23272A2E4949494917
:1052600049494932363A3E42470001220021104660
:1052700034E001220021022030E00122114601E049
:1052800001220021062029E0012289B20D2025E01B
:10529000012289B2082021E0012289B209201DE003
:1052A0000122114601E0012200210B2016E001221B
:1052B0000021042012E00122002105200EE001223D
:1052C000002107200AE0012200210C2006E0012233
:1052D0000021032002E0012200210A20FBF7E8BDA3
:1052E000FBF7E0BA704700002DE9F0412F4C012692
:1052F000217859B1032701290FD0DFF8B480A0F13C
:10530000300502292DD0032945D10CE0402802D1D7
:1053100000F0EAF82670BDE8F081A0F121015D29D6
:1053200039D860703DE0092D0BD8FFF77BFFA078DE
:10533000042830D248F82050E670267102202070F0
:10534000E9E72028E7D03D28E5D00A2803D00D283A
:1053500001D0FF281FD1A27815496078FFF770FFB0
:1053600019E0092D0FD8E1780929D4D2A37858F88B
:10537000235005EB850500EB4500303848F8230045
:10538000491CE170C7E72C2809D00A280BD00D284A
:1053900009D0FF2807D0BDE8F04100F0A5B8FFF71D
:1053A00041FF2770B7E7FFF73DFFD4E7DC0000209F
:1053B000083100200348007A08B103A0704704A018
:1053C00070470000183000204D414E55000000008D
:1053D0004155544F0000000010B5194C19A0217818
:1053E000FFF7BEFA617818A0FFF7BAFAFFF7E2FFFD
:1053F000014616A0FFF707FB617B15A0FFF7B0FA87
:1054000060694FF47A71B0FBF1F112A0FFF7A8FACE
:10541000A07A01280BD010A110A0FFF7F4FA617A4E
:105420000FA0FFF79DFA207B18B10EA102E00DA19D
:10543000F2E709A1BDE810400BA0FFF7E4BA0000B5
:105440001830002074300000743100007432000005
:1054500074330000743400004F4646007435000079
:10546000743600004F4E00007437000010B51C4C1D
:105470001C482178FFF774FA1A486178001DFFF77D
:105480006FFAFFF797FF014616480830FFF7BBFA9F
:105490001448617B0C30FFF763FA60694FF47A714E
:1054A000B0FBF1F10F481030FFF75AFAA07A01284B
:1054B0000AD00C4914310B481830FFF7A4FA207BAE
:1054C00028B10849203104E006492031F3E70549B5
:1054D00014310448BDE810402430FFF794BA0000AE
:1054E0001830002044540008034800210170417026
:1054F0008170C17001717047DC000020FEE7000080
:10550000294A1228537A4DD2DFE800F04C090D11D8
:1055100014181C2024272A2C32383C3F43470322EE
:10552000002101203CE003220021022038E0032278
:10553000002101E003220121062031E003220021A5
:1055400007202DE003220021042029E0032200216E
:10555000052025E003220D2022E0032208201FE081
:10556000591CFAE713B15B1E99B2F6E70021F4E784
:10557000C1EB011081000322092011E00322002168
:105580000A200DE00322012101E0032200210B206B
:1055900006E0032200210C2002E0032200210F205C
:1055A000FBF786BC704700001830002030B4164965
:1055B00001244A1C0B78BBB10024012B18D0D05415
:1055C0005B1CD8B20870052817D30C70137850787C
:1055D000D17843409078127980EA010463409A427E
:1055E0000BD130BCFFF78CBFAA2806D1107003E0A6
:1055F000552804D0AA2800D00C7030BC70475070D9
:1056000002200870F9E70000F50000200907090EE4
:10561000002804DB00F1E02080F80014704700F05F
:105620000F0000F1E02080F8141D7047FCF7E4FF44
:10563000FFF741FBFEF78CFCFEF704FCFEF7F0FCE5
:10564000FEF752FDFEF7CCFCFEF79AFDFEF7B4FD27
:10565000FEF7CEFD00F01AF8FEF71CFC00F028F86B
:10566000FEE710B5EFF3058111B16FF0050403E01B
:10567000002408B100F0E0FE204610BDEFF30580E5
:1056800008B101F0C7BB01F0BFBB0000EFF305801C
:1056900010B16FF0050070470448016811B14FF078
:1056A000FF30704701210160002070478800002012
:1056B00010B5EFF3058010B16FF0050010BD08487C
:1056C0000168012902D04FF0FF3010BD054A0021CA
:1056D00082F8141D0221016000F016FF002010BDA9
:1056E000880000200BE000E0F8B51D466FF00302D3
:1056F0006FF002064FF00004EFF30583A3B1F0B1A1
:10570000E9B1E5B9002200926A4601F08FFA01285A
:1057100017D10098B0B10C494FF080500860BFF32A
:105720004F8FBFF36F8F0DE048B141B12A4601F0B2
:10573000E1F9012806D025B16FF0010402E014461A
:1057400000E034462046F8BD04ED00E0F8B514460C
:105750004FF00005EFF3058212BB08B301B3A4B10B
:10576000D4E9023263B1502A1AD32269C2B16769FF
:1057700000FB01F6B74213D3009501F034F807E0BF
:1057800072B9226962B9626952B9002201F00AF85D
:10579000050005D00CB1216800E0002100F016FEE4
:1057A0002846F8BDF8B51D466FF003026FF00206FB
:1057B0004FF00004EFF30583ABB100B3F9B1F5B9D5
:1057C0000022134600926A4601F034F9012818D1EC
:1057D0000098B8B10C494FF080500860BFF34F8F6C
:1057E000BFF36F8F0EE050B149B100232A4601F09C
:1057F00071F8012806D025B16FF0010402E01446CB
:1058000000E034462046F8BD04ED00E010B5EFF3AB
:10581000058111B16FF0050404E028B10024214690
:1058200001F014F8204610BD6FF00304FAE770B5DC
:1058300005464FF00004EFF3058050BB0DB16868DA
:1058400000E00020C10701D0012600E0002600078B
:105850001FD46DB1D5E9021021B1502819D31EB162
:10586000042002E020B114E0012000F08EFF05E0EA
:105870000EB1042000E0012000F07CFF040008D0FD
:105880000DB1296800E0002100F0A0FD0EB144F048
:105890000104204670BD00002DE9FF414FEA0103DD
:1058A0004FF00005EFF30581039549BB40B3802716
:1058B000182100244AB3166806B1344696691EB111
:1058C0003146761E382E02D21679F60703D0002014
:1058D00004B0BDE8F081566906B1B708D2F808C037
:1058E000BCF1000F0DD0D5685C2D18D312693AB108
:1058F00036B18DE806103A46214601F04CFA039085
:105900000DE0D6685EB912694AB903AACDE9001262
:10591000BAB2214601F012FA012800D0039503988B
:10592000D6E700002DE9F041134C0F460546E66826
:105930002068001D00F04CFC681C07D137B12168BD
:10594000BDE8F0410D48091D00F092BC20683544C7
:10595000B5424560216805D2A06BBDE8F041091D44
:1059600000F06EBC606B091D00F06AFCA06A854205
:1059700000D2A562BDE8F081380000203408002084
:105980002DE9F041054600F07FFC2D4CA068401C3D
:10599000A06020682B4F10B1606930B32BE0256008
:1059A000A068012827D1002606EB860007EB8000BF
:1059B00000F038FC761C382EF6D3234800F032FC79
:1059C0002148143000F02EFC1F48283000F02AFC3B
:1059D0001D483C3000F026FC1B48503000F022FCF3
:1059E000194860631430A06305E02068E96AC06A62
:1059F000884200D82560606A401C60626864E86A7A
:105A00002169884200D9206100EB800007EB80000B
:105A1000291D00F02DFC00F057FC606900280CD017
:105A20002068E96AC06A884207D208494FF080506E
:105A30000860BFF34F8FBFF36F8FBDE8F0810000A8
:105A40003800002084030020E407002004ED00E07B
:105A500038B500F019FC104C2068C8B90F4800F0A8
:105A6000E1FB0E48143000F0DDFB0C48E060143020
:105A700020610A4B0020F03B009003F150021021FE
:105A80000A2000F0B0FE206010B105A100F09EFCDD
:105A9000BDE8384000F018BC740000203809002030
:105AA000546D72510000000030B4026C0B46002AA5
:105AB0000BD0C1681144C1608468A14201D3016860
:105AC000C16030BC1846FAF7CBBB30BC70472DE93B
:105AD000F041856B174604460026026C82B1C7B1BF
